:020000000629CF
:0E000600533083120313FD00FD0B0728080082
:10001400243083120313FC00B530FD00FD0B1028BF
:0A002400FC0B10280000000008008B
:0C002E00000000000000000000000800BE
:10003A0083120313B41B2328881324288817341B1C
:10004A002828081329280817B41A2D2888122E28B8
:10005A008816341A32280812332808162E18372818
:10006A00071438280710871417208710B4193F2857
:10007A008813402888173419442808134528081774
:10008A00B418492888124A28881634184E280812A3
:10009A004F2808162E1853280714542807108714B7
:1000AA00172087102E1C5B280A205C2803200800D2
:0E00BA00831203132D088A002C088200080010
:1000C800831203132E103308B4001D202E140800C9
:1000D8008316031387100710081288120813881351
:1000E80083128710071088130813881208120A2031
:1000F8000A200A20881608168714172087100A2055
:100108008714172087100A208714172087100A20C1
:1001180008128714172087100A20871417208710C1
:10012800881288178714172087100A208813081642
:1001380087141720871008128714172087100A20A1
:1001480087141720871008168714172087100A208D
:10015800081287141720871088170817881608169A
:0C0168008714172087100A202E140800AE
:10017400CC28803083120313AF00DF28C030AF00D7
:10018400DF289430AF00DF28D430AF00DF28803080
:10019400AF00DF28831203132F08013A0319BB2889
:1001A4002F08023A0319C0282F08033A0319C32859
:1001B4002F08043A0319C628C9283003F0002F0871
:1001C400F0077008AF007008B4001D202E10B201B3
:1001D40032083107840000080319F828320831076F
:1001E40084000008B3006420B20AEA282E14080030
:1001F4005D208A110A128000840AAC0A0319AD0A30
:08020400F003031DFA280800B5
:10020C00533083120313A0004130A1004E30A200E2
:10021C004B30A3004530A4005430A500A6014D304E
:10022C00A7004130A8004C30A9004930AA00AB010E
:10023C006C200130B4001D200C30B4001D200130A6
:10024C00AF000630B0002030B100BA200230AF0051
:0E025C000630B0002730B100BA203329342913
:02400E000A2F77
:00000001FF
